:10094C00456E7465722050494E3A0041636365737D
:10095C0073204772616E7465640057726F6E672006
:05096C0050494E21007E
:0808FF00C2B6D2B77F017E00F2
:10090700E4FDFCC3ED9FEC9E5015E4FBFA0BBB0026
:0F091700010ABA04F8BBFBF50DBD00010C80E42A
:0109260022AE
:0A0996008FA0C2B51208FFC2B722FD
:0A09A0008FA0D2B51208FFC2B722E3
:100927008B0C8A0D890EAB0CAA0DA90E12097160EA
:1009370013050EE50E7002050D14F9120971FF1269
:0509470009A080E2227E
:10089600C290D291D292D2932094063094FD7F37A3
:1008A600222095063095FD7F38222096063096FD4B
:1008B6007F3922D290C291D292D29320940630945C
:1008C600FD7F34222095063095FD7F352220960641
:1008D6003096FD7F3622D290D291C292D293209446
:1008E600063094FD7F31222095063095FD7F322219
:0908F60020969D3096FD7F33220F
:10080000C2B0C2B17F381209967F0C1209967F01DF
:100810001209967F011209967BFF7A09794C120919
:10082000277FC0120996900000120896AE827408C5
:100830002EF8A6077F2A1209A0A3E5826404458347
:1008400070E7E5086431702BE50964327025E50A2C
:10085000B43320E50BB4341B7F011209967BFF7A79
:10086000097957120927D2B07FF47E01120907C215
:10087000B080197F011209967BFF7A097966120907
:1008800027D2B17FF47E01120907C2B17FE87E034F
:0608900012090702081323
:0300000002098A68
:0C098A00787FE4F6D8FD75810E020800AD
:10097100BB010689828A83E0225002E722BBFE0284
:09098100E32289828A83E49322B7
:00000001FF
